{
  "_format": "hh-sol-artifact-1",
  "contractName": "StakingContract",
  "sourceName": "contracts/StakingContract.sol",
  "abi": [
    {
      "inputs": [
        {
          "internalType": "address",
          "name": "_token",
          "type": "address"
        }
      ],
      "stateMutability": "nonpayable",
      "type": "constructor"
    },
    {
      "anonymous": false,
      "inputs": [
        {
          "indexed": true,
          "internalType": "address",
          "name": "user",
          "type": "address"
        },
        {
          "indexed": false,
          "internalType": "uint256",
          "name": "amount",
          "type": "uint256"
        }
      ],
      "name": "RewardClaimed",
      "type": "event"
    },
    {
      "anonymous": false,
      "inputs": [
        {
          "indexed": true,
          "internalType": "address",
          "name": "user",
          "type": "address"
        },
        {
          "indexed": false,
          "internalType": "uint256",
          "name": "amount",
          "type": "uint256"
        }
      ],
      "name": "Staked",
      "type": "event"
    },
    {
      "anonymous": false,
      "inputs": [
        {
          "indexed": true,
          "internalType": "address",
          "name": "user",
          "type": "address"
        },
        {
          "indexed": false,
          "internalType": "uint256",
          "name": "amount",
          "type": "uint256"
        }
      ],
      "name": "Unstaked",
      "type": "event"
    },
    {
      "inputs": [],
      "name": "MIN_STAKE",
      "outputs": [
        {
          "internalType": "uint256",
          "name": "",
          "type": "uint256"
        }
      ],
      "stateMutability": "view",
      "type": "function"
    },
    {
      "inputs": [],
      "name": "REWARD_TIME",
      "outputs": [
        {
          "internalType": "uint256",
          "name": "",
          "type": "uint256"
        }
      ],
      "stateMutability": "view",
      "type": "function"
    },
    {
      "inputs": [],
      "name": "TOKENS_PER_UNIT",
      "outputs": [
        {
          "internalType": "uint256",
          "name": "",
          "type": "uint256"
        }
      ],
      "stateMutability": "view",
      "type": "function"
    },
    {
      "inputs": [],
      "name": "claimRewards",
      "outputs": [],
      "stateMutability": "nonpayable",
      "type": "function"
    },
    {
      "inputs": [],
      "name": "rewardToken",
      "outputs": [
        {
          "internalType": "contract IW3BToken",
          "name": "",
          "type": "address"
        }
      ],
      "stateMutability": "view",
      "type": "function"
    },
    {
      "inputs": [],
      "name": "stake",
      "outputs": [],
      "stateMutability": "payable",
      "type": "function"
    },
    {
      "inputs": [
        {
          "internalType": "address",
          "name": "",
          "type": "address"
        }
      ],
      "name": "stakes",
      "outputs": [
        {
          "internalType": "uint256",
          "name": "amount",
          "type": "uint256"
        },
        {
          "internalType": "uint256",
          "name": "timestamp",
          "type": "uint256"
        },
        {
          "internalType": "bool",
          "name": "claimed",
          "type": "bool"
        }
      ],
      "stateMutability": "view",
      "type": "function"
    },
    {
      "inputs": [],
      "name": "unstake",
      "outputs": [],
      "stateMutability": "nonpayable",
      "type": "function"
    }
  ],
  "bytecode": "0x608060405234801561001057600080fd5b50604051610e76380380610e76833981810160405281019061003291906100db565b806000806101000a81548173ffffffffffffffffffffffffffffffffffffffff021916908373ffffffffffffffffffffffffffffffffffffffff16021790555050610108565b600080fd5b600073ffffffffffffffffffffffffffffffffffffffff82169050919050565b60006100a88261007d565b9050919050565b6100b88161009d565b81146100c357600080fd5b50565b6000815190506100d5816100af565b92915050565b6000602082840312156100f1576100f0610078565b5b60006100ff848285016100c6565b91505092915050565b610d5f806101176000396000f3fe60806040526004361061007b5760003560e01c80633a4b66f11161004e5780633a4b66f114610118578063ba166e2b14610122578063cb1c2b5c1461014d578063f7c618c1146101785761007b565b8063072361681461008057806316934fc4146100ab5780632def6620146100ea578063372500ab14610101575b600080fd5b34801561008c57600080fd5b506100956101a3565b6040516100a29190610848565b60405180910390f35b3480156100b757600080fd5b506100d260048036038101906100cd91906108c6565b6101a8565b6040516100e19392919061090e565b60405180910390f35b3480156100f657600080fd5b506100ff6101df565b005b34801561010d57600080fd5b506101166103e3565b005b610120610648565b005b34801561012e57600080fd5b506101376107fb565b6040516101449190610848565b60405180910390f35b34801561015957600080fd5b50610162610800565b60405161016f9190610848565b60405180910390f35b34801561018457600080fd5b5061018d61080b565b60405161019a91906109a4565b60405180910390f35b600f81565b60016020528060005260406000206000915090508060000154908060010154908060020160009054906101000a900460ff16905083565b6000600160003373ffffffffffffffffffffffffffffffffffffffff1673ffffffffffffffffffffffffffffffffffffffff16815260200190815260200160002090506000816000015411610269576040517f08c379a000000000000000000000000000000000000000000000000000000000815260040161026090610a1c565b60405180910390fd5b600f816001015461027a9190610a6b565b4210156102bc576040517f08c379a00000000000000000000000000000000000000000000000000000000081526004016102b390610aeb565b60405180910390fd5b8060020160009054906101000a900460ff166102db576102da6103e3565b5b600081600001549050600160003373ffffffffffffffffffffffffffffffffffffffff1673ffffffffffffffffffffffffffffffffffffffff16815260200190815260200160002060008082016000905560018201600090556002820160006101000a81549060ff021916905550503373ffffffffffffffffffffffffffffffffffffffff166108fc829081150290604051600060405180830381858888f19350505050158015610390573d6000803e3d6000fd5b503373ffffffffffffffffffffffffffffffffffffffff167f0f5bb82176feb1b5e747e28471aa92156a04d9f3ab9f45f28e2d704232b93f75826040516103d79190610848565b60405180910390a25050565b6000600160003373ffffffffffffffffffffffffffffffffffffffff1673ffffffffffffffffffffffffffffffffffffffff1681526020019081526020016000209050600081600001541161046d576040517f08c379a000000000000000000000000000000000000000000000000000000000815260040161046490610a1c565b60405180910390fd5b600f816001015461047e9190610a6b565b4210156104c0576040517f08c379a00000000000000000000000000000000000000000000000000000000081526004016104b790610aeb565b60405180910390fd5b8060020160009054906101000a900460ff1615610512576040517f08c379a000000000000000000000000000000000000000000000000000000000815260040161050990610b57565b60405180910390fd5b6000670de0b6b3a7640000606466038d7ea4c6800084600001546105369190610ba6565b6105409190610bd7565b61054a9190610bd7565b905060018260020160006101000a81548160ff02191690831515021790555060008054906101000a900473ffffffffffffffffffffffffffffffffffffffff1673ffffffffffffffffffffffffffffffffffffffff166340c10f1933836040518363ffffffff1660e01b81526004016105c4929190610c28565b600060405180830381600087803b1580156105de57600080fd5b505af11580156105f2573d6000803e3d6000fd5b505050503373ffffffffffffffffffffffffffffffffffffffff167f106f923f993c2149d49b4255ff723acafa1f2d94393f561d3eda32ae348f72418260405161063c9190610848565b60405180910390a25050565b66038d7ea4c68000341015610692576040517f08c379a000000000000000000000000000000000000000000000000000000000815260040161068990610c9d565b60405180910390fd5b6000600160003373ffffffffffffffffffffffffffffffffffffffff1673ffffffffffffffffffffffffffffffffffffffff1681526020019081526020016000206000015414610717576040517f08c379a000000000000000000000000000000000000000000000000000000000815260040161070e90610d09565b60405180910390fd5b604051806060016040528034815260200142815260200160001515815250600160003373ffffffffffffffffffffffffffffffffffffffff1673ffffffffffffffffffffffffffffffffffffffff168152602001908152602001600020600082015181600001556020820151816001015560408201518160020160006101000a81548160ff0219169083151502179055509050503373ffffffffffffffffffffffffffffffffffffffff167f9e71bc8eea02a63969f509818f2dafb9254532904319f9dbda79b67bd34a5f3d346040516107f19190610848565b60405180910390a2565b606481565b66038d7ea4c6800081565b60008054906101000a900473ffffffffffffffffffffffffffffffffffffffff1681565b6000819050919050565b6108428161082f565b82525050565b600060208201905061085d6000830184610839565b92915050565b600080fd5b600073ffffffffffffffffffffffffffffffffffffffff82169050919050565b600061089382610868565b9050919050565b6108a381610888565b81146108ae57600080fd5b50565b6000813590506108c08161089a565b92915050565b6000602082840312156108dc576108db610863565b5b60006108ea848285016108b1565b91505092915050565b60008115159050919050565b610908816108f3565b82525050565b60006060820190506109236000830186610839565b6109306020830185610839565b61093d60408301846108ff565b949350505050565b6000819050919050565b600061096a61096561096084610868565b610945565b610868565b9050919050565b600061097c8261094f565b9050919050565b600061098e82610971565b9050919050565b61099e81610983565b82525050565b60006020820190506109b96000830184610995565b92915050565b600082825260208201905092915050565b7f4e6f207374616b6520666f756e64000000000000000000000000000000000000600082015250565b6000610a06600e836109bf565b9150610a11826109d0565b602082019050919050565b60006020820190508181036000830152610a35816109f9565b9050919050565b7f4e487b7100000000000000000000000000000000000000000000000000000000600052601160045260246000fd5b6000610a768261082f565b9150610a818361082f565b9250828201905080821115610a9957610a98610a3c565b5b92915050565b7f546f6f206561726c790000000000000000000000000000000000000000000000600082015250565b6000610ad56009836109bf565b9150610ae082610a9f565b602082019050919050565b60006020820190508181036000830152610b0481610ac8565b9050919050565b7f416c726561647920636c61696d65640000000000000000000000000000000000600082015250565b6000610b41600f836109bf565b9150610b4c82610b0b565b602082019050919050565b60006020820190508181036000830152610b7081610b34565b9050919050565b7f4e487b7100000000000000000000000000000000000000000000000000000000600052601260045260246000fd5b6000610bb18261082f565b9150610bbc8361082f565b925082610bcc57610bcb610b77565b5b828204905092915050565b6000610be28261082f565b9150610bed8361082f565b9250828202610bfb8161082f565b91508282048414831517610c1257610c11610a3c565b5b5092915050565b610c2281610888565b82525050565b6000604082019050610c3d6000830185610c19565b610c4a6020830184610839565b9392505050565b7f4d696e696d756d20302e30312045544800000000000000000000000000000000600082015250565b6000610c876010836109bf565b9150610c9282610c51565b602082019050919050565b60006020820190508181036000830152610cb681610c7a565b9050919050565b7f416c7265616479207374616b6564000000000000000000000000000000000000600082015250565b6000610cf3600e836109bf565b9150610cfe82610cbd565b602082019050919050565b60006020820190508181036000830152610d2281610ce6565b905091905056fea2646970667358221220d7b5174bd263b8de863729ae0ca703926f4c665b7cdf5580c39ae16e1eaf596064736f6c634300081c0033",
  "linkReferences": {},
  "deployedLinkReferences": {}
}